:100000000C9453000C947B000C947B000C947B00AC
:100010000C947B000C947B000C947B000C947B0074
:100020000C947B000C947B000C947B000C947B0064
:100030000C947B000C947B000C947B000C947B0054
:100040000C94D6020C947B000C94A4020C947E02B7
:100050000C947B000C947B000C947B000C947B0034
:100060000C947B000C947B0000000000250028000D
:100070002B0000000000240027002A0004040404D0
:100080000404040402020202020203030303030342
:10009000010204081020408001020408102001021F
:1000A00004081020200311241FBECFEFD8E0DEBFCC
:1000B000CDBF11E0A0E0B1E0E8E1FBE002C00590B7
:1000C0000D92A833B107D9F722E0A8E3B1E001C04F
:1000D0001D92AE32B207E1F710E0C3E5D0E004C0F4
:1000E0002197FE010E947F05C235D107C9F70E9402
:1000F0005F030C948A050C940000E9E4F1E0A08908
:10010000B18982E08C93A485B5851C92A685B785BC
:100110008FEC8C93108EA489B58986E08C93A2898C
:10012000B3898C9180618C93A289B3898C9188600A
:100130008C93A289B3898C9180688C930288F3890F
:10014000E02D80818F7D80830895CF92DF92EF92A2
:10015000FF920F931F93CF93DF936C017A018B0172
:10016000C0E0D0E0CE15DF0589F0D8016D918D019A
:10017000D601ED91FC910190F081E02DC601099529
:10018000892B11F47E0102C02196ECCFC701DF91CB
:10019000CF911F910F91FF90EF90DF90CF90089536
:1001A000089580E090E00895FC01538D448D252F43
:1001B00030E0842F90E0821B930B541710F0CF9601
:1001C000089501970895FC01918D828D981761F033
:1001D000828DDF01A80FB11D5D968C91928D9F5F7E
:1001E0009F73928F90E008958FEF9FEF0895FC0129
:1001F000918D828D981731F0828DE80FF11D858DDC
:1002000090E008958FEF9FEF0895FC01918D228D6E
:10021000892F90E0805C9F4F821B91098F739927F3
:10022000089589E491E00E94050121E0892B09F4F9
:1002300020E0822F0895FC01848DDF01A80FB11DFD
:10024000A35ABF4F2C91848D90E001968F7399270C
:10025000848FA689B7892C93A089B1898C918064F9
:100260008C93938D848D981306C00288F389E02DBA
:1002700080818F7D80830895EF92FF920F931F936B
:10028000CF93DF93EC0181E0888F9B8D8C8D981349
:1002900005C0E889F989808185FD24C0F62E0B8D83
:1002A00010E00F5F1F4F0F731127E02E8C8DE812A7
:1002B0000CC00FB607FCFACFE889F989808185FF69
:1002C000F5CFCE010E941B01F1CF8B8DFE01E80F0F
:1002D000F11DE35AFF4FF0820B8FEA89FB89808181
:1002E000806207C0EE89FF896083E889F98980818F
:1002F0008064808381E090E0DF91CF911F910F9126
:10030000FF90EF900895CF93DF93EC01888D8823C1
:10031000C9F0EA89FB89808185FD05C0A889B98972
:100320008C9186FD0FC00FB607FCF5CF808185FF4D
:10033000F2CFA889B9898C9185FFEDCFCE010E94BB
:100340001B01E7CFDF91CF91089580E090E0892BEA
:1003500029F00E94110181110C9400000895CF939F
:10036000DF9390E0FC01E057FF4F2491FC01E4583B
:10037000FF4F8491882361F190E0880F991FFC0161
:10038000EE58FF4FC591D491FC01E859FF4FA5915C
:10039000B491611109C09FB7F89488812095822398
:1003A0008883EC912E230BC0623061F49FB7F894E0
:1003B0003881822F809583238883EC912E2B2C9378
:1003C0009FBF06C08FB7F894E8812E2B28838FBF7C
:1003D000DF91CF9108952FB7F89460913D0170910E
:1003E0003E0180913F01909140012FBF08958F926F
:1003F0009F92AF92BF92CF92DF92EF92FF926B01EA
:100400007C010E94EB014B015C01C60ED71EE81E69
:10041000F91E0E94EB01681579058A059B0528F0F5
:10042000C616D706E806F906A0F7FF90EF90DF9012
:10043000CF90BF90AF909F908F9008950E948505B8
:100440006115710579F0FB0101900020E9F7319702
:10045000AF01461B570BDC01ED91FC910280F3814B
:10046000E02D099480E090E008954F925F926F92A2
:100470007F92EF92FF920F931F93CF93DF93CDB7AD
:10048000DEB7A1970FB6F894DEBF0FBECDBF7C01DB
:10049000FA01CB0119A2223008F42AE08E010F5D87
:1004A0001F4F422E512C612C712CBF01A3019201D0
:1004B0000E945D05F901CA01015011096A3014F466
:1004C000605D01C0695CD8016C93232B242B252B24
:1004D00061F7B801C7010E942002A1960FB6F894F7
:1004E000DEBF0FBECDBFDF91CF911F910F91FF9067
:1004F000EF907F906F905F904F9008951F920F92B2
:100500000FB60F9211242F933F934F935F936F93E6
:100510007F938F939F93AF93BF93EF93FF9389E460
:1005200091E00E941B01FF91EF91BF91AF919F91CC
:100530008F917F916F915F914F913F912F910F908C
:100540000FBE0F901F9018951F920F920FB60F922B
:1005500011242F938F939F93EF93FF93E091590171
:10056000F0915A018081E0915F01F091600182FD7C
:1005700012C09081809162018F5F8F73209163011F
:10058000821751F0E0916201F0E0E75BFE4F958F3A
:100590008093620101C08081FF91EF919F918F91C3
:1005A0002F910F900FBE0F901F9018951F920F92D2
:1005B0000FB60F9211242F933F938F939F93AF9376
:1005C000BF9380913D0190913E01A0913F01B09178
:1005D000400130913C0123E0230F2D3720F4019698
:1005E000A11DB11D05C026E8230F0296A11DB11D56
:1005F00020933C0180933D0190933E01A0933F01E5
:10060000B09340018091380190913901A0913A0155
:10061000B0913B010196A11DB11D809338019093CB
:100620003901A0933A01B0933B01BF91AF919F91E3
:100630008F913F912F910F900FBE0F901F901895A3
:10064000E9E4F1E01382128288EE93E0A0E0B0E0EA
:1006500084839583A683B78384E091E0918380832C
:1006600085EC90E09587848784EC90E09787868777
:1006700080EC90E0918B808B81EC90E0938B828B6F
:1006800082EC90E0958B848B86EC90E0978B868B48
:10069000118E128E138E148EE6EEF1E01682178202
:1006A000108611861286138614861586168617867E
:1006B000108A118A128A138A148A158A08957894E6
:1006C00084B5826084BD84B5816084BD85B5826057
:1006D00085BD85B5816085BD80916E008160809308
:1006E0006E00109281008091810082608093810071
:1006F0008091810081608093810080918000816081
:10070000809380008091B10084608093B1008091DB
:10071000B00081608093B00080917A008460809303
:100720007A0080917A00826080937A0080917A00CA
:10073000816080937A0080917A00806880937A004B
:100740001092C10010922A0210922B0210922C02D9
:1007500010922D021092E8011092E9011092EA0124
:100760001092EB0168EB7BE080E090E00E94F701E3
:1007700089E491E090932902809328020E947D00F1
:100780000E94EB016093E8017093E9018093EA0114
:100790009093EB0162E171E080912802909129022F
:1007A0000E9420026AE070E080E090E00E94F70181
:1007B00081E08093FC010E947D0061E089E00E945D
:1007C000AF0161E08AE00E94AF0161E085E00E9434
:1007D000AF0161E086E00E94AF0160E08EE00E9420
:1007E000AF0160E08FE00E94AF0160E080E10E9415
:1007F000AF0160E081E10E94AF0160E08EE00E9405
:10080000AF0184EFC82EDD24D394E12CF12CC0E499
:100810000E94EB01672B682B692B41F40E94EB01CE
:10082000623071058105910508F40BC10E94EB014E
:10083000609345017093460180934701909348016E
:100840008090410190904201A0904301B0904401FA
:10085000681579058A059B0540F460934101709302
:100860004201809343019093440180904101909014
:100870004201A0904301B09044019B01AC012819B2
:1008800039094A095B0949015A013AEF8316910473
:10089000A104B10408F4D5C06093410170934201F2
:1008A0008093430190934401C092F401D092F501EA
:1008B000E092F601F092F7011092F8011092F9011E
:1008C0001092FA011092FB018091EC019091ED01E0
:1008D000A091EE01B091EF018093F0019093F101AE
:1008E000A093F201B093F3010E94EB016093EC013D
:1008F0007093ED018093EE019093EF010E94EB0164
:100900006093E8017093E9018093EA019093EB0111
:100910000E94EB014B015C0164E271E080912802CE
:10092000909129020E9420022AE041E050E060E01C
:1009300070E080912802909129020E9435026BE2BA
:1009400071E080912802909129020E9420022AE001
:10095000B501A40180912802909129020E943502DC
:100960006DE271E080912802909129020E9420029C
:100970008091EC019091ED01A091EE01B091EF0119
:10098000B501A401481B590B6A0B7B0B2AE080912F
:100990002802909129020E9435026DE271E0809157
:1009A0002802909129020E9420024091EC0150916E
:1009B000ED016091EE017091EF018091F001909155
:1009C000F101A091F201B091F301481B590B6A0BA0
:1009D0007B0B2AE080912802909129020E94350227
:1009E0006FE271E080912802909129020E9420021A
:1009F0000E94EB01AB01BC012AE08091280290919A
:100A000029020E943502A0902802B090290261E3D9
:100A100071E0C5010E94200261E271E0C5010E94FF
:100A2000200265E070E080E090E00E94F7010E9403
:100A3000EB016093EC017093ED018093EE019093D4
:100A4000EF01C0937C0080917A00806480937A00EB
:100A500080917A0086FDFCCF80917800209179000A
:100A600090E0922B4C01092E000CAA08BB0897FFBE
:100A700014C0E0914901F0914A010190F081E02D0C
:100A80006DE289E491E0099544275527BA01481998
:100A900059096A097B092AE003C02AE0B501A401CB
:100AA00089E491E00E94350261E271E089E491E01D
:100AB0000E9420020E94A501ABCEA1E21A2EAA1B21
:100AC000BB1BFD010DC0AA1FBB1FEE1FFF1FA217FE
:100AD000B307E407F50720F0A21BB30BE40BF50BFB
:100AE000661F771F881F991F1A9469F76095709584
:100AF000809590959B01AC01BD01CF010895EE0F4B
:100B0000FF1F0590F491E02D099481E090E0F894A6
:080B10000C948A05F894FFCF54
:100B1800000000003C01A500D40083010501E300AA
:100B2800F700564D4450565F317C315F564D445066
:100B3800560D0A00564D4450455F003A323A007C43
:080B4800005F564D44504500CA
:107E0000112484B714BE81FFF0D085E080938100F7
:107E100082E08093C00088E18093C10086E0809377
:107E2000C20080E18093C4008EE0C9D0259A86E02C
:107E300020E33CEF91E0309385002093840096BBD3
:107E4000B09BFECF1D9AA8958150A9F7CC24DD24C4
:107E500088248394B5E0AB2EA1E19A2EF3E0BF2EE7
:107E6000A2D0813461F49FD0082FAFD0023811F036
:107E7000013811F484E001C083E08DD089C08234E0
:107E800011F484E103C0853419F485E0A6D080C0E4
:107E9000853579F488D0E82EFF2485D0082F10E0AE
:107EA000102F00270E291F29000F111F8ED06801E7
:107EB0006FC0863521F484E090D080E0DECF843638
:107EC00009F040C070D06FD0082F6DD080E0C81688
:107ED00080E7D80618F4F601B7BEE895C0E0D1E017
:107EE00062D089930C17E1F7F0E0CF16F0E7DF06D8
:107EF00018F0F601B7BEE89568D007B600FCFDCFD4
:107F0000A601A0E0B1E02C9130E011968C91119780
:107F100090E0982F8827822B932B1296FA010C0160
:107F200087BEE89511244E5F5F4FF1E0A038BF0790
:107F300051F7F601A7BEE89507B600FCFDCF97BE46
:107F4000E89526C08437B1F42ED02DD0F82E2BD052
:107F50003CD0F601EF2C8F010F5F1F4F84911BD097
:107F6000EA94F801C1F70894C11CD11CFA94CF0C13
:107F7000D11C0EC0853739F428D08EE10CD085E9AC
:107F80000AD08FE07ACF813511F488E018D01DD067
:107F900080E101D065CF982F8091C00085FFFCCF94
:107FA0009093C60008958091C00087FFFCCF809118
:107FB000C00084FD01C0A8958091C6000895E0E648
:107FC000F0E098E1908380830895EDDF803219F02E
:107FD00088E0F5DFFFCF84E1DECF1F93182FE3DFCA
:107FE0001150E9F7F2DF1F91089580E0E8DFEE27F6
:047FF000FF270994CA
:027FFE00040479
:0400000300007E007B
:00000001FF