:100000000C9462000C948A000C948A000C948A0070
:100010000C948A000C948A000C948A000C948A0038
:100020000C948A000C948A000C948A000C948A0028
:100030000C948A000C948A000C948A000C948A0018
:100040000C94BE030C948A000C948C030C946603ED
:100050000C948A000C948A000C948A000C948A00F8
:100060000C948A000C948A000000000024002700F1
:100070002A0000000000250028002B0000000000DE
:1000800023002600290004040404040404040202DA
:100090000202020203030303030301020408102007
:1000A0004080010204081020010204081020000012
:1000B0000008000201000003040700000000000027
:1000C00000000D0811241FBECFEFD8E0DEBFCDBF6A
:1000D00011E0A0E0B1E0E4E7F4E102C005900D9288
:1000E000A433B107D9F722E0A4E3B1E001C01D9227
:1000F000A330B207E1F710E0C2E6D0E004C02197D8
:10010000FE010E942D0AC136D107C9F70E940804DA
:100110000C94380A0C940000E0916601F09167019C
:100120000190F081E02D682F86E691E00994CF924E
:10013000DF92EF92FF920F931F93CF93DF936C01A7
:100140007A018B01C0E0D0E0CE15DF0589F0D8013F
:100150006D918D01D601ED91FC910190F081E02D22
:10016000C6010995892B11F47E0102C02196ECCFBE
:10017000C701DF91CF911F910F91FF90EF90DF901A
:10018000CF900895089580E090E00895FC01538D8C
:10019000448D252F30E0842F90E0821B930B541761
:1001A00010F0CF96089501970895FC01918D828DEE
:1001B000981761F0828DDF01A80FB11D5D968C91BB
:1001C000928D9F5F9F73928F90E008958FEF9FEFC6
:1001D0000895FC01918D828D981731F0828DE80F82
:1001E000F11D858D90E008958FEF9FEF0895FC013C
:1001F000918D228D892F90E0805C9F4F821B910909
:100200008F739927089586E691E00E94F70021E018
:10021000892B09F420E0822F0895FC01848DDF01F1
:10022000A80FB11DA35ABF4F2C91848D90E0019669
:100230008F739927848FA689B7892C93A089B18958
:100240008C9180648C93938D848D981306C0028862
:10025000F389E02D80818F7D80830895EF92FF9256
:100260000F931F93CF93DF93EC0181E0888F9B8DD9
:100270008C8D981305C0E889F989808185FD24C09B
:10028000F62E0B8D10E00F5F1F4F0F731127E02E1E
:100290008C8DE8120CC00FB607FCFACFE889F989FB
:1002A000808185FFF5CFCE010E940D01F1CF8B8DAE
:1002B000FE01E80FF11DE35AFF4FF0820B8FEA8930
:1002C000FB898081806207C0EE89FF896083E889AD
:1002D000F98980818064808381E090E0DF91CF9113
:1002E0001F910F91FF90EF900895CF93DF93EC0152
:1002F000888D8823C9F0EA89FB89808185FD05C046
:10030000A889B9898C9186FD0FC00FB607FCF5CF7F
:10031000808185FFF2CFA889B9898C9185FFEDCFC7
:10032000CE010E940D01E7CFDF91CF91089580E0CB
:1003300090E0892B29F00E94030181110C940000A8
:100340000895833081F028F4813099F08230A1F053
:1003500008958730A9F08830B9F08430D1F48091C5
:1003600080008F7D03C0809180008F778093800014
:10037000089584B58F7702C084B58F7D84BD0895BC
:100380008091B0008F7703C08091B0008F7D809303
:10039000B0000895CF93DF93282F30E0F901E255A4
:1003A000FF4F8491F901E656FF4FD491F901EA57C6
:1003B000FF4FC491CC2391F081110E94A101EC2F39
:1003C000F0E0EE0FFF1FE458FF4FA591B491EC91C0
:1003D000ED2381E090E021F480E002C080E090E035
:1003E000DF91CF9108951F93CF93DF93282F30E0B3
:1003F000F901E255FF4F8491F901E656FF4FD49180
:10040000F901EA57FF4FC491CC23C9F0162F81118F
:100410000E94A101EC2FF0E0EE0FFF1FEE58FF4FFE
:10042000A591B4918FB7F894111105C09C91ED2F4F
:10043000E095E92302C0EC91ED2BEC938FBFDF91A7
:10044000CF911F910895CF93DF9390E0FC01E65682
:10045000FF4F2491FC01EA57FF4F8491882361F1FB
:1004600090E0880F991FFC01E859FF4FC591D49186
:10047000FC01EE58FF4FA591B491611109C09FB7DF
:10048000F8948881209582238883EC912E230BC0D9
:10049000623061F49FB7F8943881822F809583236E
:1004A0008883EC912E2B2C939FBF06C08FB7F894B6
:1004B000E8812E2B28838FBFDF91CF9108951F9362
:1004C000CF93DF93182FEB0161E00E942302209766
:1004D00011F460E004C0CF3FD10539F461E0812F11
:1004E000DF91CF911F910C94F301E12FF0E0E255E1
:1004F000FF4FE491E330F9F048F4E130B9F0E23035
:10050000A1F584B5806284BDC8BD34C0E730E9F090
:10051000E83019F1E43049F58091800080628093E1
:100520008000D0938B00C0938A0024C084B580687B
:1005300084BDC7BD1FC0809180008068809380000B
:10054000D0938900C093880015C08091B000806866
:100550008093B000C093B3000DC08091B000806262
:100560008093B000C093B40005C0C038D1050CF032
:10057000B5CFAFCFDF91CF911F9108953FB7F894DA
:100580008091390190913A01A0913B01B0913C01D9
:1005900026B5A89B05C02F3F19F00196A11DB11DDE
:1005A0003FBFBA2FA92F982F8827820F911DA11D19
:1005B000B11DBC01CD0142E0660F771F881F991F56
:1005C0004A95D1F70895009769F0FC010190002049
:1005D000E9F73197AF01481B590BBC0186E691E062
:1005E0000C94970080E090E008958F929F92AF92D4
:1005F000BF920F931F93CF93DF93CDB7DEB7A19731
:100600000FB6F894DEBF0FBECDBF19A2423008F47A
:100610004AE08E010F5D1F4F842E912CA12CB12C2E
:10062000A50194010E940B0AE62FB901CA010150ED
:100630001109EA3014F4E05D01C0E95CD801EC93E3
:10064000232B242B252B61F7C8010E94E302A196DE
:100650000FB6F894DEBF0FBECDBFDF91CF911F91D3
:100660000F91BF90AF909F908F900895CF92DF929F
:10067000EF92FF92CF93DF936C01990FEE08FF0882
:10068000F7FE17C08DE20E948C00EC0166277727E9
:10069000CB016C197D098E099F094AE00E94F50281
:1006A0008C0F9D1FDF91CF91FF90EF90DF90CF9047
:1006B00008954AE0C701B601DF91CF91FF90EF9016
:1006C000DF90CF900C94F5020E94330A1F920F9294
:1006D0000FB60F9211242F933F934F935F936F9315
:1006E0007F938F939F93AF93BF93EF93FF9386E690
:1006F00091E00E940D01FF91EF91BF91AF919F9109
:100700008F917F916F915F914F913F912F910F90BA
:100710000FBE0F901F9018951F920F920FB60F9259
:1007200011242F938F939F93EF93FF93E091760182
:10073000F09177018081E0917C01F0917D0182FD53
:1007400012C0908180917F018F5F8F732091800113
:10075000821751F0E0917F01F0E0EA59FE4F958F4A
:1007600080937F0101C08081FF91EF919F918F91D4
:100770002F910F900FBE0F901F9018951F920F9200
:100780000FB60F9211242F933F938F939F93AF93A4
:10079000BF938091350190913601A0913701B091BE
:1007A00038013091340123E0230F2D3720F40196D6
:1007B000A11DB11D05C026E8230F0296A11DB11D84
:1007C000209334018093350190933601A093370133
:1007D000B09338018091390190913A01A0913B0189
:1007E000B0913C010196A11DB11D809339019093F8
:1007F0003A01A0933B01B0933C01BF91AF919F910F
:100800008F913F912F910F900FBE0F901F901895D1
:10081000CF93DF9300D000D0CDB7DEB7789484B506
:10082000826084BD84B5816084BD85B5826085BDEC
:1008300085B5816085BD80916E00816080936E007A
:10084000109281008091810082608093810080916C
:10085000810081608093810080918000816080931D
:1008600080008091B10084608093B1008091B000DD
:1008700081608093B00080917A00846080937A00D8
:1008800080917A00826080937A0080917A00816002
:1008900080937A0080917A00806880937A00109229
:1008A000C100E0917601F091770182E08083E091D0
:1008B0007201F09173011082E0917401F091750161
:1008C0008FEC808310927E01E0917A01F0917B01A0
:1008D00086E08083E0917801F091790180818061E8
:1008E0008083E0917801F091790180818860808334
:1008F000E0917801F0917901808180688083E091B6
:100900007801F091790180818F7D808361E089E0B9
:100910000E94230261E08AE00E94230261E085E0F8
:100920000E94230261E086E00E94230260E083E0EF
:100930000E94230260E084E00E94230260E087E0DE
:100940000E94230260E08BE00E9423020E94BE020C
:100950004B015C0114EFC12EDD24D394E12CF12C6A
:100960000E94BE02DC01CB0188199909AA09BB09C2
:10097000883E9340A105B10558F021E0C21AD10884
:10098000E108F10888EE880E83E0981EA11CB11CD6
:10099000C114D104E104F10419F701E010E033249B
:1009A000339410934801009347011092460110922E
:1009B00045011092610183E00E94CA017C0190937D
:1009C0003E0180933D0184E00E94CA019093400162
:1009D00080933F0187E00E94CA0190934201809377
:1009E00041018BE00E94CA0190934401809343012E
:1009F000C7010E94360389E291E00E94E3028091E0
:100A00003F01909140010E94360389E291E00E94EB
:100A1000E30280914101909142010E94360389E2F4
:100A200091E00E94E30280914301909144010E9471
:100A3000360389E291E00E94E30282E191E00E94A4
:100A4000E30220913D0130913E01409145015091DA
:100A5000460180913F019091400160914701709162
:100A600048012417350701F582179307E9F4E0914F
:100A70004101F0914201E817F907B1F4E091430117
:100A8000F0914401E617F70779F4C12CD12CB0E8B6
:100A9000EB2EB0E4FB2EC0925D01D0925E01E0929D
:100AA0005F01F092600125C026173707F9F484171B
:100AB0009507E1F4E0914101F0914201E817F9074F
:100AC000B9F5E0914501F0914601E817F90781F584
:100AD000C12CD12CA0E8EA2EA0ECFA2EC0925D0128
:100AE000D0925E01E0925F01F09260012417350719
:100AF00011F584179507F9F4E0914101F091420155
:100B0000E617F707C1F4E0914301F0914401E617BD
:100B1000F70789F4C12CD12CE12CF0E4FF2EC09210
:100B20005D01D0925E01E0925F01F092600129C008
:100B30002817390709F32617370709F021C282174A
:100B4000930709F065C2E0914101F0914201E41779
:100B5000F507E1F4E0914301F0914401E417F50752
:100B6000A9F4C12CD12CE12CE0ECFE2EC0925D0149
:100B7000D0925E01E0925F01F092600184179507C8
:100B8000F1F4FB0186179707D1F404C08417950789
:100B9000B1F4FC01A0914101B0914201AE17BF0731
:100BA00071F4A0914301B0914401AE17BF0739F42D
:100BB000C12CD12C50E8E52E5FE3F52E1AC0261784
:100BC0003707F9F482179307E1F4E0914101F091BE
:100BD0004201E817F907A9F4E0914301F0914401BB
:100BE000E417F50771F4C12CD12C40E8E42E4FEB4B
:100BF000F42EC0925D01D0925E01E0925F01F0920E
:100C0000600186179707B1F440914101509142016C
:100C10004817590741F410925D0110925E0110923D
:100C20005F01109260012817390721F4421753071A
:100C300009F4ABC1C0905D01D0905E01E0905F010E
:100C4000F0906001A7019601C701B6010E94060A53
:100C5000882319F085E191E01AC046015701E89414
:100C6000B7F82FEF3FEF4FE75FE7C501B4010E94F0
:100C7000060A81110FC02FEF3FEF4FE75FE7C50175
:100C8000B4010E94A70818162CF489E191E00E9493
:100C9000E30272C02FEF3FEF4FE75FE4C701B601F9
:100CA0000E94940918161CF48DE191E0F0CF2FEF0B
:100CB0003FEF4FE75FECC701B6010E94A70887FD31
:100CC000F3CF20E030E0A901C701B6010E94A708D8
:100CD00087FF07C08DE20E948C00F7FAF094F7F8C6
:100CE000F0942AE037ED43EA5BE3C701B6010E94C6
:100CF0003B084B015C010E94B3086B017C010E9420
:100D0000E2089B01AC01C501B4010E943A084B0105
:100D10005C014AE0C701B6010E94F5028EE20E9422
:100D20008C0020E030E040E251E4C501B4010E94B3
:100D300099096B017C010E94B3084B01A12CB12CD5
:100D40004AE0C501B4010E94F502C501B4010E9448
:100D5000E2089B01AC01C701B6010E943A0820E0FD
:100D600030E040E251E40E9499090E94B30880E01B
:100D700090E04AE00E94F50282E191E00E94E302E5
:100D8000C0905D01D0905E01E0905F01F090600145
:100D9000C0925901D0925A01E0925B01F0925C013D
:100DA00020915101309152014091530150915401D1
:100DB00060915501709156018091570190915801B1
:100DC0000E943B0869837A838B839C8360935501DF
:100DD00070935601809357019093580120914D01D3
:100DE00030914E0140914F0150915001C701B60121
:100DF0000E943A084B015C016093490170934A01DB
:100E000080934B0190934C0120E030E040EF51E49F
:100E1000C701B6010E9499092B013C0120E030E096
:100E200040EA51E469817A818B819C810E94990911
:100E30009B01AC01C301B2010E943B082B013C01A4
:100E400020E030E040EA50E4C501B4010E94990975
:100E50009B01AC01C301B2010E943B084B015C0144
:100E600060936201709363018093640190936501C4
:100E700089819A81AB81BC81809351019093520109
:100E8000A0935301B0935401C0924D01D0924E01F2
:100E9000E0924F01F092500120E030E048E453E44A
:100EA000C501B4010E943B080E94AC086B017C01A3
:100EB000A501940160E070E088E493E40E943A08A0
:100EC0000E94AC084B015C0181E291E00E94E302C8
:100ED000C6010E94360388E291E00E94E3028CE2A0
:100EE00091E00E94E3022401092C000C66087708B7
:100EF00077FE0CC08DE20E948C0066277727CB011D
:100F000064197509860997094AE003C04AE0C301DC
:100F1000B2010E94F50282E191E00E94E302809119
:100F20006101882331F06FEF70E089E00E945F0279
:100F300017C0D7FE02C0C12CD12CB6016F3F71057E
:100F400019F014F06FEF70E089E00E945F0297FEE5
:100F500002C0812C912CB4016F3F710519F014F07F
:100F60006FEF70E085E00E945F0260E08AE00E941F
:100F7000F30160E086E00E94F3010E94970111CD29
:100F80002417350709F03DCEFCCD809143019091A7
:100F900044018417950709F04DCE309261011092FB
:100FA0005D0110925E0110925F011092600110923B
:100FB000590110925A0110925B0110925C0110923B
:100FC000550110925601109257011092580110923B
:100FD000490110924A0110924B0110924C0110925B
:100FE00062011092630110926401109265011092E7
:100FF0004D0110924E0110924F011092500110922B
:10100000510110925201109253011092540112CECC
:101010002417350709F0D6CDB4CDE6E6F1E013820A
:10102000128288EE93E0A0E0B0E084839583A683EB
:10103000B78384E091E09183808385EC90E095878D
:10104000848784EC90E09787868780EC90E0918B92
:10105000808B81EC90E0938B828B82EC90E0958B7F
:10106000848B86EC90E0978B868B118E128E138E7C
:10107000148E08955058BB27AA270E9452080C943A
:101080005A090E944C0938F00E94530920F039F4A3
:101090009F3F19F426F40C9449090EF4E095E7FB00
:1010A0000C944309E92F0E946B0958F3BA176207A1
:1010B00073078407950720F079F4A6F50C948D0941
:1010C0000EF4E0950B2EBA2FA02D0B01B901900163
:1010D0000C01CA01A0011124FF27591B99F0593FA7
:1010E00050F4503E68F11A16F040A22F232F342FEF
:1010F0004427585FF3CF469537952795A795F0403D
:101100005395C9F77EF41F16BA0B620B730B840B51
:10111000BAF09150A1F0FF0FBB1F661F771F881F09
:10112000C2F70EC0BA0F621F731F841F48F4879561
:1011300077956795B795F7959E3F08F0B0CF939553
:10114000880F08F09927EE0F9795879508950E94CC
:101150001F0908F481E008950E94B3086894B11152
:101160000C948E0908950E94730988F09F5798F097
:10117000B92F9927B751B0F0E1F0660F771F881F9C
:10118000991F1AF0BA95C9F714C0B13091F00E94B6
:101190008D09B1E008950C948D09672F782F882769
:1011A000B85F39F0B93FCCF3869577956795B395DD
:1011B000D9F73EF490958095709561957F4F8F4F4C
:1011C0009F4F0895E89409C097FB3EF49095809551
:1011D000709561957F4F8F4F9F4F9923A9F0F92FFD
:1011E00096E9BB279395F695879577956795B7957B
:1011F000F111F8CFFAF4BB0F11F460FF1BC06F5F61
:101200007F4F8F4F9F4F16C0882311F096E911C072
:10121000772321F09EE8872F762F05C0662371F093
:1012200096E8862F70E060E02AF09A95660F771FA7
:10123000881FDAF7880F9695879597F90895990F83
:101240000008550FAA0BE0E8FEEF16161706E80790
:10125000F907C0F012161306E407F50798F0621BB1
:10126000730B840B950B39F40A2661F0232B242B86
:10127000252B21F408950A2609F4A140A6958FEFA5
:10128000811D811D089597F99F6780E870E060E0F7
:1012900008959FEF80EC089500240A94161617060F
:1012A00018060906089500240A9412161306140657
:1012B00005060895092E0394000C11F4882352F0BA
:1012C000BB0F40F4BF2B11F460FF04C06F5F7F4F72
:1012D0008F4F9F4F089557FD9058440F551F59F059
:1012E0005F3F71F04795880F97FB991F61F09F3F13
:1012F00079F087950895121613061406551FF2CF3C
:101300004695F1DF08C0161617061806991FF1CF8B
:1013100086957105610508940895E894BB276627B2
:101320007727CB0197F908950E941F0908F48FEFE2
:1013300008950E94AC090C945A090E944C0938F097
:101340000E94530920F0952311F00C9443090C944A
:10135000490911240C948E090E946B0970F3959F22
:10136000C1F3950F50E0551F629FF001729FBB279C
:10137000F00DB11D639FAA27F00DB11DAA1F649F38
:101380006627B00DA11D661F829F2227B00DA11DEB
:10139000621F739FB00DA11D621F839FA00D611D71
:1013A000221F749F3327A00D611D231F849F600D92
:1013B000211D822F762F6A2F11249F5750409AF0BB
:1013C000F1F088234AF0EE0FFF1FBB1F661F771F47
:1013D000881F91505040A9F79E3F510580F00C9412
:1013E00043090C948E095F3FE4F3983ED4F386954D
:1013F00077956795B795F795E7959F5FC1F7FE2BB2
:10140000880F911D9695879597F908950E941F0959
:10141000880B990B0895A1E21A2EAA1BBB1BFD0194
:101420000DC0AA1FBB1FEE1FFF1FA217B307E407C3
:10143000F50720F0A21BB30BE40BF50B661F771F1B
:10144000881F991F1A9469F76095709580959095FB
:101450009B01AC01BD01CF010895EE0FFF1F059068
:10146000F491E02D099481E090E0F8940C94380A0E
:04147000F894FFCF1E
:10147400000000002E019700C6007501F700D5009A
:10148400E9000D0A006E616E00696E66006F766693
:10149400006C6566743A2000202020007269676839
:0414A400743A200076
:107E0000112484B714BE81FFF0D085E080938100F7
:107E100082E08093C00088E18093C10086E0809377
:107E2000C20080E18093C4008EE0C9D0259A86E02C
:107E300020E33CEF91E0309385002093840096BBD3
:107E4000B09BFECF1D9AA8958150A9F7CC24DD24C4
:107E500088248394B5E0AB2EA1E19A2EF3E0BF2EE7
:107E6000A2D0813461F49FD0082FAFD0023811F036
:107E7000013811F484E001C083E08DD089C08234E0
:107E800011F484E103C0853419F485E0A6D080C0E4
:107E9000853579F488D0E82EFF2485D0082F10E0AE
:107EA000102F00270E291F29000F111F8ED06801E7
:107EB0006FC0863521F484E090D080E0DECF843638
:107EC00009F040C070D06FD0082F6DD080E0C81688
:107ED00080E7D80618F4F601B7BEE895C0E0D1E017
:107EE00062D089930C17E1F7F0E0CF16F0E7DF06D8
:107EF00018F0F601B7BEE89568D007B600FCFDCFD4
:107F0000A601A0E0B1E02C9130E011968C91119780
:107F100090E0982F8827822B932B1296FA010C0160
:107F200087BEE89511244E5F5F4FF1E0A038BF0790
:107F300051F7F601A7BEE89507B600FCFDCF97BE46
:107F4000E89526C08437B1F42ED02DD0F82E2BD052
:107F50003CD0F601EF2C8F010F5F1F4F84911BD097
:107F6000EA94F801C1F70894C11CD11CFA94CF0C13
:107F7000D11C0EC0853739F428D08EE10CD085E9AC
:107F80000AD08FE07ACF813511F488E018D01DD067
:107F900080E101D065CF982F8091C00085FFFCCF94
:107FA0009093C60008958091C00087FFFCCF809118
:107FB000C00084FD01C0A8958091C6000895E0E648
:107FC000F0E098E1908380830895EDDF803219F02E
:107FD00088E0F5DFFFCF84E1DECF1F93182FE3DFCA
:107FE0001150E9F7F2DF1F91089580E0E8DFEE27F6
:047FF000FF270994CA
:027FFE00040479
:0400000300007E007B
:00000001FF