:100000000C9462000C948A000C948A000C948A0070
:100010000C948A000C948A000C948A000C948A0038
:100020000C948A000C948A000C948A000C948A0028
:100030000C948A000C948A000C948A000C948A0018
:100040000C94F0030C948A000C94BE030C94980357
:100050000C948A000C948A000C948A000C948A00F8
:100060000C948A000C948A000000000024002700F1
:100070002A0000000000250028002B0000000000DE
:1000800023002600290004040404040404040202DA
:100090000202020203030303030301020408102007
:1000A0004080010204081020010204081020000012
:1000B0000008000201000003040700000000000027
:1000C00000005B0711241FBECFEFD8E0DEBFCDBF1D
:1000D00011E0A0E0B1E0E0E3F2E102C005900D9292
:1000E000A832B107D9F721E0A8E2B1E001C01D9222
:1000F000A73FB207E1F710E0C2E6D0E004C02197C5
:10010000FE010E940B09C136D107C9F70E943A04CB
:100110000C9416090C940000CF92DF92EF92FF929C
:100120000F931F93CF93DF936C017A018B01C0E093
:10013000D0E0CE15DF0589F0D8016D918D01D60193
:10014000ED91FC910190F081E02DC6010995892B7C
:1001500011F47E0102C02196ECCFC701DF91CF914F
:100160001F910F91FF90EF90DF90CF900895089529
:1001700080E090E00895FC01538D448D252F30E000
:10018000842F90E0821B930B541710F0CF960895A4
:1001900001970895FC01918D828D981761F0828DF1
:1001A000DF01A80FB11D5D968C91928D9F5F9F73AB
:1001B000928F90E008958FEF9FEF0895FC01918D4D
:1001C000828D981731F0828DE80FF11D858D90E0BA
:1001D00008958FEF9FEF0895FC01918D228D892F57
:1001E00090E0805C9F4F821B91098F73992708953F
:1001F0008AE591E00E94EC0021E0892B09F420E0DF
:10020000822F0895FC01848DDF01A80FB11DA35A30
:10021000BF4F2C91848D90E001968F739927848F26
:10022000A689B7892C93A089B1898C9180648C931D
:10023000938D848D981306C00288F389E02D808108
:100240008F7D80830895EF92FF920F931F93CF933A
:10025000DF93EC0181E0888F9B8D8C8D981305C016
:10026000E889F989808185FD24C0F62E0B8D10E088
:100270000F5F1F4F0F731127E02E8C8DE8120CC0FB
:100280000FB607FCFACFE889F989808185FFF5CFA1
:10029000CE010E940201F1CF8B8DFE01E80FF11D0E
:1002A000E35AFF4FF0820B8FEA89FB8980818062DD
:1002B00007C0EE89FF896083E889F98980818064BD
:1002C000808381E090E0DF91CF911F910F91FF90AB
:1002D000EF900895CF93DF93EC01888D8823C9F0C8
:1002E000EA89FB89808185FD05C0A889B9898C913F
:1002F00086FD0FC00FB607FCF5CF808185FFF2CFDA
:10030000A889B9898C9185FFEDCFCE010E940201A9
:10031000E7CFDF91CF91089580E090E0892B29F01D
:100320000E94F80081110C9400000895833081F040
:1003300028F4813099F08230A1F008958730A9F037
:100340008830B9F08430D1F4809180008F7D03C073
:10035000809180008F7780938000089584B58F7797
:1003600002C084B58F7D84BD08958091B0008F77E1
:1003700003C08091B0008F7D8093B0000895CF932B
:10038000DF93282F30E0F901E255FF4F8491F90106
:10039000E656FF4FD491F901EA57FF4FC491CC23A1
:1003A00091F081110E949601EC2FF0E0EE0FFF1FFB
:1003B000E458FF4FA591B491EC91ED2381E090E0DA
:1003C00021F480E002C080E090E0DF91CF910895B9
:1003D0001F93CF93DF93282F30E0F901E255FF4FB1
:1003E0008491F901E656FF4FD491F901EA57FF4F86
:1003F000C491CC23C9F0162F81110E949601EC2FD5
:10040000F0E0EE0FFF1FEE58FF4FA591B4918FB7AC
:10041000F894111105C09C91ED2FE095E92302C0DD
:10042000EC91ED2BEC938FBFDF91CF911F9108954D
:10043000CF93DF9390E0FC01E656FF4F2491FC013F
:10044000EA57FF4F8491882361F190E0880F991F4C
:10045000FC01E859FF4FC591D491FC01EE58FF4FC4
:10046000A591B491611109C09FB7F8948881209536
:1004700082238883EC912E230BC0623061F49FB7F6
:10048000F8943881822F809583238883EC912E2BDA
:100490002C939FBF06C08FB7F894E8812E2B28833A
:1004A0008FBFDF91CF9108951F93CF93DF93182FC4
:1004B000EB0161E00E941802209711F460E004C093
:1004C000CF3FD10539F461E0812FDF91CF911F91AA
:1004D0000C94E801E12FF0E0E255FF4FE491E330A6
:1004E000F9F048F4E130B9F0E230A1F584B580626A
:1004F00084BDC8BD34C0E730E9F0E83019F1E4301C
:1005000049F580918000806280938000D0938B00B9
:10051000C0938A0024C084B5806884BDC7BD1FC055
:1005200080918000806880938000D0938900C09380
:10053000880015C08091B00080688093B000C0939F
:10054000B3000DC08091B00080628093B000C09372
:10055000B40005C0C038D1050CF0B5CFAFCFDF91E6
:10056000CF911F9108953FB7F89480912D019091FC
:100570002E01A0912F01B091300126B5A89B05C096
:100580002F3F19F00196A11DB11D3FBFBA2FA92F12
:10059000982F8827820F911DA11DB11DBC01CD018F
:1005A00042E0660F771F881F991F4A95D1F708957B
:1005B0008F929F92AF92BF92CF92DF92EF92FF9273
:1005C0006B017C010E94B3024B015C01C114D10498
:1005D000E104F104F1F00E94B302DC01CB018819BF
:1005E0009909AA09BB09883E9340A105B10570F39A
:1005F00021E0C21AD108E108F10888EE880E83E0F4
:10060000981EA11CB11CC114D104E104F10419F716
:10061000DDCFFF90EF90DF90CF90BF90AF909F9095
:100620008F900895009769F0FC0101900020E9F790
:100630003197AF01481B590BBC018AE591E00C943E
:100640008C0080E090E008958F929F92AF92BF92CD
:100650000F931F93CF93DF93CDB7DEB7A1970FB65C
:10066000F894DEBF0FBECDBF19A2423008F44AE0B5
:100670008E010F5D1F4F842E912CA12CB12CA50152
:1006800094010E94E908E62FB901CA01015011093D
:10069000EA3014F4E05D01C0E95CD801EC93232B4F
:1006A000242B252B61F7C8010E941203A1960FB6D7
:1006B000F894DEBF0FBECDBFDF91CF911F910F9198
:1006C000BF90AF909F908F900895CF92DF92EF925E
:1006D000FF92CF93DF936B017C01E0915A01F0917F
:1006E0005B010190F081E02D6DE28AE591E00995D2
:1006F000EC0166277727CB016C197D098E099F09CC
:100700004AE00E9424038C0F9D1FDF91CF91FF9040
:10071000EF90DF90CF900895BC01990F880B990B53
:1007200097FD0C9465034AE00C9424030E94110980
:100730001F920F920FB60F9211242F933F934F9356
:100740005F936F937F938F939F93AF93BF93EF9339
:10075000FF938AE591E00E940201FF91EF91BF9122
:10076000AF919F918F917F916F915F914F913F9149
:100770002F910F900FBE0F901F9018951F920F9200
:100780000FB60F9211242F938F939F93EF93FF93A4
:10079000E0916A01F0916B018081E0917001F0912C
:1007A000710182FD12C09081809173018F5F8F7300
:1007B00020917401821751F0E0917301F0E0E65A44
:1007C000FE4F958F8093730101C08081FF91EF915F
:1007D0009F918F912F910F900FBE0F901F901895A2
:1007E0001F920F920FB60F9211242F933F938F9366
:1007F0009F93AF93BF938091290190912A01A0917B
:100800002B01B0912C013091280123E0230F2D37CB
:1008100020F40196A11DB11D05C026E8230F029604
:10082000A11DB11D209328018093290190932A01D5
:10083000A0932B01B0932C0180912D0190912E015A
:10084000A0912F01B09130010196A11DB11D80939F
:100850002D0190932E01A0932F01B0933001BF91F1
:10086000AF919F918F913F912F910F900FBE0F905D
:100870001F901895CF93DF9300D000D0CDB7DEB78F
:10088000789484B5826084BD84B5816084BD85B56B
:10089000826085BD85B5816085BD80916E00816077
:1008A00080936E001092810080918100826080931D
:1008B000810080918100816080938100809180001F
:1008C0008160809380008091B10084608093B1004A
:1008D0008091B00081608093B00080917A00846044
:1008E00080937A0080917A00826080937A00809170
:1008F0007A00816080937A0080917A00806880938A
:100900007A001092C100E0916A01F0916B0182E0DF
:100910008083E0916601F09167011082E0916801A7
:10092000F09169018FEC808310927201E0916E0169
:10093000F0916F0186E08083E0916C01F0916D0190
:10094000808180618083E0916C01F0916D018081F4
:1009500088608083E0916C01F0916D0180818068F6
:100960008083E0916C01F0916D0180818F7D8083A7
:1009700061E089E00E94180261E08AE00E941802AA
:1009800061E085E00E94180261E086E00E941802A2
:1009900060E083E00E94180260E084E00E94180298
:1009A00060E087E00E94180260E08BE00E9418027D
:1009B00064EF71E080E090E00E94D80201E010E076
:1009C0003324339410933C0100933B0110923A017D
:1009D000109239011092550183E00E94BF017C0101
:1009E000909332018093310184E00E94BF01909383
:1009F00034018093330187E00E94BF019093360158
:100A0000809335018BE00E94BF0190933801809361
:100A10003701C7010E948C038DE191E00E9412030F
:100A200080913301909134010E948C038DE191E01B
:100A30000E94120380913501909136010E948C032F
:100A40008DE191E00E94120380913701909138016D
:100A50000E948C038DE191E00E94120382E191E0FB
:100A60000E941203209131013091320140913901ED
:100A700050913A01809133019091340160913B0192
:100A800070913C012417350701F582179307E9F4AB
:100A9000E0913501F0913601E817F907B1F4E091E2
:100AA0003701F0913801E617F70779F4C12CD12C02
:100AB000B0E8EB2EB0E4FB2EC0925101D09252016F
:100AC000E0925301F092540125C026173707F9F43C
:100AD00084179507E1F4E0913501F0913601E817AC
:100AE000F907B9F5E0913901F0913A01E817F907F2
:100AF00081F5C12CD12CA0E8EA2EA0ECFA2EC092F0
:100B00005101D0925201E0925301F0925401241706
:100B1000350711F584179507F9F4E0913501F09147
:100B20003601E617F707C1F4E0913701F09138017B
:100B3000E617F70789F4C12CD12CE12CF0E4FF2E45
:100B4000C0925101D0925201E0925301F0925401AF
:100B500029C02817390709F32617370709F076C186
:100B60008217930709F0A2C1E0913501F091360197
:100B7000E417F507E1F4E0913701F0913801E4174B
:100B8000F507A9F4C12CD12CE12CE0ECFE2EC0928B
:100B90005101D0925201E0925301F0925401841716
:100BA0009507F1F4FB0186179707D1F404C0841769
:100BB0009507B1F4FC01A0913501B0913601AE1753
:100BC000BF0771F4A0913701B0913801AE17BF078C
:100BD00039F4C12CD12C50E8E52E5FE3F52E1AC074
:100BE00026173707F9F482179307E1F4E0913501EE
:100BF000F0913601E817F907A9F4E0913701F09177
:100C00003801E417F50771F4C12CD12C40E8E42E2B
:100C10004FEBF42EC0925101D0925201E092530159
:100C2000F092540186179707B1F440913501509125
:100C300036014817590741F41092510110925201A0
:100C400010925301109254012817390721F44217CA
:100C5000530709F400C1C0905101D0905201E090B7
:100C60005301F0905401C0924D01D0924E01E09298
:100C70004F01F09250012091450130914601409181
:100C80004701509148016091490170914A0180915A
:100C90004B0190914C010E94890769837A838B8371
:100CA0009C836093490170934A0180934B01909318
:100CB0004C012091410130914201409143015091FA
:100CC0004401C701B6010E9488074B015C01609393
:100CD0003D0170933E0180933F019093400120E0DD
:100CE00030E048EC51E4C701B6010E947C082B01BA
:100CF0003C012AE939E949E15FE369817A818B8125
:100D00009C810E947C089B01AC01C301B2010E943E
:100D100089072B013C0120E030E048E454E4C501A0
:100D2000B4010E947C089B01AC01C301B2010E9486
:100D300089074B015C0160935601709357018093C2
:100D400058019093590189819A81AB81BC8180932C
:100D5000450190934601A0934701B0934801C0928A
:100D60004101D0924201E0924301F092440120E01F
:100D700030E048E453E4C501B4010E9489070E94B1
:100D8000F5076B017C01A501940160E070E088E447
:100D900093E40E9488070E94F5074B015C0185E1FE
:100DA00091E00E941203C6010E948C038CE191E045
:100DB0000E94120380E291E00E941203B401092C08
:100DC000000C880B990B97FF03C00E94650303C0BA
:100DD0004AE00E94240382E191E00E941203809184
:100DE0005501882331F06DEF70E089E00E945402D4
:100DF00017C0D7FE02C0C12CD12CB6016F3F7105C0
:100E000019F014F06FEF70E089E00E94540297FE31
:100E100002C0812C912CB4016F3F710519F014F0C0
:100E20006FEF70E085E00E94540260E08AE00E946B
:100E3000E80160E086E00E94E80166E970E080E099
:100E400090E00E94D8020E948C01BCCD2417350787
:100E500009F0E8CEA7CE8091370190913801841730
:100E6000950709F0F8CE3092550110925101109279
:100E700052011092530110925401109249011092A4
:100E80004A0110924B0110924C01109241011092B4
:100E900042011092430110924401109245011092B8
:100EA00046011092470110924801D5CE241735070C
:100EB00009F099CE77CEEAE5F1E01382128288EE4E
:100EC00093E0A0E0B0E084839583A683B78384E0B9
:100ED00091E09183808385EC90E09587848784EC12
:100EE00090E09787868780EC90E0918B808B81ECF7
:100EF00090E0938B828B82EC90E0958B848B86ECD8
:100F000090E0978B868B118E128E138E148E08951F
:100F10005058BB27AA270E94A0070C9442080E94A1
:100F2000340838F00E943B0820F039F49F3F19F450
:100F300026F40C9431080EF4E095E7FB0C942B0892
:100F4000E92F0E94530858F3BA1762077307840702
:100F5000950720F079F4A6F50C9475080EF4E09549
:100F60000B2EBA2FA02D0B01B90190010C01CA0163
:100F7000A0011124FF27591B99F0593F50F4503E0E
:100F800068F11A16F040A22F232F342F4427585F00
:100F9000F3CF469537952795A795F0405395C9F718
:100FA0007EF41F16BA0B620B730B840BBAF09150D0
:100FB000A1F0FF0FBB1F661F771F881FC2F70EC06F
:100FC000BA0F621F731F841F48F487957795679542
:100FD000B795F7959E3F08F0B0CF9395880F08F02E
:100FE0009927EE0F9795879508950E94FC076894BE
:100FF000B1110C94760808950E945B0888F09F5701
:1010000098F0B92F9927B751B0F0E1F0660F771F2C
:10101000881F991F1AF0BA95C9F714C0B13091F022
:101020000E947508B1E008950C947508672F782F19
:101030008827B85F39F0B93FCCF3869577956795E7
:10104000B395D9F73EF490958095709561957F4F53
:101050008F4F9F4F089597F99F6780E870E060E099
:1010600008959FEF80EC089500240A941616170641
:1010700018060906089500240A9412161306140689
:1010800005060895092E0394000C11F4882352F0EC
:10109000BB0F40F4BF2B11F460FF04C06F5F7F4FA4
:1010A0008F4F9F4F089557FD9058440F551F59F08B
:1010B0005F3F71F04795880F97FB991F61F09F3F45
:1010C00079F087950895121613061406551FF2CF6E
:1010D0004695F1DF08C0161617061806991FF1CFBE
:1010E00086957105610508940895E894BB276627E5
:1010F0007727CB0197F908950E948F080C94420836
:101100000E94340838F00E943B0820F0952311F02B
:101110000C942B080C94310811240C9476080E942E
:10112000530870F3959FC1F3950F50E0551F629FD0
:10113000F001729FBB27F00DB11D639FAA27F00D30
:10114000B11DAA1F649F6627B00DA11D661F829F57
:101150002227B00DA11D621F739FB00DA11D621F3C
:10116000839FA00D611D221F749F3327A00D611D59
:10117000231F849F600D211D822F762F6A2F11243B
:101180009F5750409AF0F1F088234AF0EE0FFF1F6E
:10119000BB1F661F771F881F91505040A9F79E3FC5
:1011A000510580F00C942B080C9476085F3FE4F313
:1011B000983ED4F3869577956795B795F795E7951B
:1011C0009F5FC1F7FE2B880F911D9695879597F924
:1011D0000895A1E21A2EAA1BBB1BFD010DC0AA1F78
:1011E000BB1FEE1FFF1FA217B307E407F50720F090
:1011F000A21BB30BE40BF50B661F771F881F991F0B
:101200001A9469F760957095809590959B01AC0153
:10121000BD01CF010895EE0FFF1F0590F491E02D61
:10122000099481E090E0F8940C941609F894FFCFAB
:101230000000000023018C00BB006A01EC00CA0022
:10124000DE000D0A006C6566743A20002020200044
:0812500072696768743A20001E
:107E0000112484B714BE81FFF0D085E080938100F7
:107E100082E08093C00088E18093C10086E0809377
:107E2000C20080E18093C4008EE0C9D0259A86E02C
:107E300020E33CEF91E0309385002093840096BBD3
:107E4000B09BFECF1D9AA8958150A9F7CC24DD24C4
:107E500088248394B5E0AB2EA1E19A2EF3E0BF2EE7
:107E6000A2D0813461F49FD0082FAFD0023811F036
:107E7000013811F484E001C083E08DD089C08234E0
:107E800011F484E103C0853419F485E0A6D080C0E4
:107E9000853579F488D0E82EFF2485D0082F10E0AE
:107EA000102F00270E291F29000F111F8ED06801E7
:107EB0006FC0863521F484E090D080E0DECF843638
:107EC00009F040C070D06FD0082F6DD080E0C81688
:107ED00080E7D80618F4F601B7BEE895C0E0D1E017
:107EE00062D089930C17E1F7F0E0CF16F0E7DF06D8
:107EF00018F0F601B7BEE89568D007B600FCFDCFD4
:107F0000A601A0E0B1E02C9130E011968C91119780
:107F100090E0982F8827822B932B1296FA010C0160
:107F200087BEE89511244E5F5F4FF1E0A038BF0790
:107F300051F7F601A7BEE89507B600FCFDCF97BE46
:107F4000E89526C08437B1F42ED02DD0F82E2BD052
:107F50003CD0F601EF2C8F010F5F1F4F84911BD097
:107F6000EA94F801C1F70894C11CD11CFA94CF0C13
:107F7000D11C0EC0853739F428D08EE10CD085E9AC
:107F80000AD08FE07ACF813511F488E018D01DD067
:107F900080E101D065CF982F8091C00085FFFCCF94
:107FA0009093C60008958091C00087FFFCCF809118
:107FB000C00084FD01C0A8958091C6000895E0E648
:107FC000F0E098E1908380830895EDDF803219F02E
:107FD00088E0F5DFFFCF84E1DECF1F93182FE3DFCA
:107FE0001150E9F7F2DF1F91089580E0E8DFEE27F6
:047FF000FF270994CA
:027FFE00040479
:0400000300007E007B
:00000001FF