:100000000C945D000C9485000C9485000C94850084
:100010000C9485000C9485000C9485000C9485004C
:100020000C9485000C9485000C9485000C9485003C
:100030000C9485000C9485000C9485000C9485002C
:100040000C940F030C9485000C94DD020C94B70201
:100050000C9485000C9485000C9485000C9485000C
:100060000C9485000C94850000000008000201003B
:100070000003040700000000000000000000000072
:10008000250028002B0000000000240027002A0083
:10009000040404040404040402020202020203032E
:1000A0000303030301020408102040800102040836
:1000B0001020010204081020590311241FBECFEFA5
:1000C000D8E0DEBFCDBF23E0AAE3B1E001C01D92BE
:1000D000A033B207E1F711E0A0E0B1E0E0EFFBE010
:1000E00002C005900D92AA33B107D9F710E0CDE513
:1000F000D0E004C02197FE010E94EB05CC35D1076A
:10010000C9F70E9498030C94F6050C940000EBE4E8
:10011000F2E0A089B18982E08C93A485B5851C9218
:10012000A685B7858FEC8C93108EA489B58986E05F
:100130008C93A289B3898C9180618C93A289B389B5
:100140008C9188608C93A289B3898C9180688C9300
:100150000288F389E02D80818F7D8083089590E06F
:10016000FC01EC55FF4F2491FC01E057FF4F8491B7
:10017000882399F090E0880F991FFC01EA57FF4F00
:10018000A591B491FC01E458FF4F859194918FB7EC
:10019000F894EC91E22BEC938FBF0895CF92DF920D
:1001A000EF92FF920F931F93CF93DF936C017A012D
:1001B0008B01C0E0D0E0CE15DF0589F0D8016D914C
:1001C0008D01D601ED91FC910190F081E02DC601E9
:1001D0000995892B11F47E0102C02196ECCFC7014D
:1001E000DF91CF911F910F91FF90EF90DF90CF9013
:1001F0000895089580E090E00895FC01538D448DAA
:10020000252F30E0842F90E0821B930B541710F0C1
:10021000CF96089501970895FC01918D828D9817CE
:1002200061F0828DDF01A80FB11D5D968C91928DDA
:100230009F5F9F73928F90E008958FEF9FEF0895D7
:10024000FC01918D828D981731F0828DE80FF11DA0
:10025000858D90E008958FEF9FEF0895FC01918DBB
:10026000228D892F90E0805C9F4F821B91098F73B4
:10027000992708958BE492E00E942E0121E0892BBA
:1002800009F420E0822F0895FC01848DDF01A80F7E
:10029000B11DA35ABF4F2C91848D90E001968F73AE
:1002A0009927848FA689B7892C93A089B1898C91CD
:1002B00080648C93938D848D981306C00288F38993
:1002C000E02D80818F7D80830895EF92FF920F93C0
:1002D0001F93CF93DF93EC0181E0888F9B8D8C8DF2
:1002E000981305C0E889F989808185FD24C0F62E20
:1002F0000B8D10E00F5F1F4F0F731127E02E8C8DB9
:10030000E8120CC00FB607FCFACFE889F9898081A2
:1003100085FFF5CFCE010E944401F1CF8B8DFE0108
:10032000E80FF11DE35AFF4FF0820B8FEA89FB893A
:100330008081806207C0EE89FF896083E889F9893E
:1003400080818064808381E090E0DF91CF911F9174
:100350000F91FF90EF900895CF93DF93EC01888D7C
:100360008823C9F0EA89FB89808185FD05C0A889B9
:10037000B9898C9186FD0FC00FB607FCF5CF80813F
:1003800085FFF2CFA889B9898C9185FFEDCFCE0189
:100390000E944401E7CFDF91CF91089580E090E083
:1003A000892B29F00E943A0181110C9400000895D4
:1003B00090E0FC01E859FF4F3491FC01EC55FF4FF0
:1003C0002491FC01E057FF4FE491EE2309F43BC078
:1003D000332339F1333091F038F43130A9F0323031
:1003E00001F584B58F7D12C0373091F03830A1F01F
:1003F0003430B9F4809180008F7D03C080918000FB
:100400008F77809380000DC084B58F7784BD09C03D
:100410008091B0008F7703C08091B0008F7D809372
:10042000B000F0E0EE0FFF1FE458FF4FA591B4912C
:100430008FB7F894EC91611103C020952E2301C071
:100440002E2B2C938FBF08952FB7F89460913F0106
:100450007091400180914101909142012FBF089518
:100460008F929F92AF92BF92CF92DF92EF92FF92C4
:100470006B017C010E9424024B015C01C60ED71E59
:10048000E81EF91E0E942402681579058A059B055D
:1004900028F0C616D706E806F906A0F7FF90EF90F9
:1004A000DF90CF90BF90AF909F908F9008950E9463
:1004B000F1056115710579F0FB0101900020E9F764
:1004C0003197AF01461B570BDC01ED91FC91028087
:1004D000F381E02D099480E090E008954F925F92BF
:1004E0006F927F92EF92FF920F931F93CF93DF93C0
:1004F000CDB7DEB7A1970FB6F894DEBF0FBECDBF64
:100500007C01FA01CB0119A2223008F42AE08E0105
:100510000F5D1F4F422E512C612C712CBF01A30186
:1005200092010E94C905F901CA01015011096A30FE
:1005300014F4605D01C0695CD8016C93232B242BFB
:10054000252B61F7B801C7010E945902A1960FB689
:10055000F894DEBF0FBECDBFDF91CF911F910F91F9
:10056000FF90EF907F906F905F904F9008951F9253
:100570000F920FB60F9211242F933F934F935F93D7
:100580006F937F938F939F93AF93BF93EF93FF935B
:100590008BE492E00E944401FF91EF91BF91AF91F3
:1005A0009F918F917F916F915F914F913F912F918B
:1005B0000F900FBE0F901F9018951F920F920FB6BD
:1005C0000F9211242F938F939F93EF93FF93E091BA
:1005D0005B02F0915C028081E0916102F091620225
:1005E00082FD12C09081809164028F5F8F73209191
:1005F0006502821751F0E0916402F0E0E55BFD4F87
:10060000958F8093640201C08081FF91EF919F914B
:100610008F912F910F900FBE0F901F9018951F92E2
:100620000F920FB60F9211242F933F938F939F93A6
:10063000AF93BF9380913F0190914001A091410100
:10064000B091420130913E0123E0230F2D3720F479
:100650000196A11DB11D05C026E8230F0296A11D1C
:10066000B11D20933E0180933F0190934001A093E0
:100670004101B093420180913A0190913B01A091D8
:100680003C01B0913D010196A11DB11D80933A013D
:1006900090933B01A0933C01B0933D01BF91AF917A
:1006A0009F918F913F912F910F900FBE0F901F90B0
:1006B0001895EBE4F2E01382128288EE93E0A0E05A
:1006C000B0E084839583A683B78384E091E091832F
:1006D000808385EC90E09587848784EC90E0978711
:1006E000868780EC90E0918B808B81EC90E0938BFF
:1006F000828B82EC90E0958B848B86EC90E0978BDC
:10070000868B118E128E138E148EE8EEF2E0168216
:100710001782108611861286138614861586168611
:100720001786108A118A128A138A148A158A0895E4
:10073000789484B5826084BD84B5816084BD85B5BC
:10074000826085BD85B5816085BD80916E008160C8
:1007500080936E001092810080918100826080936E
:100760008100809181008160809381008091800070
:100770008160809380008091B10084608093B1009B
:100780008091B00081608093B00080917A00846095
:1007900080937A0080917A00826080937A008091C1
:1007A0007A00816080937A0080917A0080688093DB
:1007B0007A001092C10010922C0310922D03109217
:1007C0002E0310922F031092EA021092EB02109265
:1007D000EC021092ED0268EB7BE080E090E00E947A
:1007E00030028BE492E090932B0380932A030E94C3
:1007F00087000E9424026093EA027093EB028093C8
:10080000EC029093ED0262E171E080912A039091F5
:100810002B030E9459026AE070E080E090E00E94A1
:10082000300281E08093FE020E9487008CE00E94EB
:10083000AF008DE00E94AF00E3E4F1E0119211926D
:1008400022E0E334F207D1F761E08CE00E94D801A6
:1008500061E08DE00E94D80160E08CE00E94D80148
:1008600060E08DE00E94D801C0E8D0E061E08DE05A
:100870000E94D80160E08DE00E94D8012197B1F775
:1008800084EF882E99249394A12CB12C10E40E941B
:100890002402672B682B692B41F40E9424026230EA
:1008A00071058105910508F40BC10E942402609333
:1008B0004702709348028093490290934A02C09085
:1008C0004302D0904402E0904502F09046026C153D
:1008D0007D058E059F0540F46093430270934402AA
:1008E0008093450290934602C0904302D090440208
:1008F000E0904502F09046029B01AC012C193D09A5
:100900004E095F0969017A013AEFC316D104E10487
:10091000F10408F4D5C060934302709344028093BD
:100920004502909346028092F6029092F702A092BE
:10093000F802B092F9021092FA021092FB021092A1
:10094000FC021092FD028091EE029091EF02A091C4
:10095000F002B091F1028093F2029093F302A0931F
:10096000F402B093F5020E9424026093EE027093A9
:10097000EF028093F0029093F1020E9424026093B0
:10098000EA027093EB028093EC029093ED020E94D6
:1009900024026B017C0164E271E080912A03909152
:1009A0002B030E9459022AE041E050E060E070E031
:1009B00080912A0390912B030E946E026BE271E0FA
:1009C00080912A0390912B030E9459022AE0B701DB
:1009D000A60180912A0390912B030E946E026DE282
:1009E00071E080912A0390912B030E94590280911B
:1009F000EE029091EF02A091F002B091F102B701E6
:100A0000A601481B590B6A0B7B0B2AE080912A0335
:100A100090912B030E946E026DE271E080912A0397
:100A200090912B030E9459024091EE025091EF02E7
:100A30006091F0027091F1028091F2029091F302C4
:100A4000A091F402B091F502481B590B6A0B7B0B85
:100A50002AE080912A0390912B030E946E026FE29C
:100A600071E080912A0390912B030E9459020E9409
:100A70002402AB01BC012AE080912A0390912B0350
:100A80000E946E02C0912A03D0912B0361E371E0B2
:100A9000CE010E94590261E271E0CE010E9459022A
:100AA00065E070E080E090E00E9430020E94240245
:100AB0006093EE027093EF028093F0029093F10244
:100AC00061E08CE00E94D80161E08DE00E94D801D5
:100AD00060E08CE00E94D80160E08DE00E94D801C7
:100AE000C3E4D1E010937C0080917A00806480930D
:100AF0007A0080917A0086FDFCCF80917800209169
:100B0000790090E0922B8993999361E08DE00E94A7
:100B1000D80160E08DE00E94D80142E0C334D407E0
:100B200009F7C3E4D1E0C990D9900D2C000CEE0870
:100B3000FF08F7FE14C0E0914B02F0914C020190C7
:100B4000F081E02D6DE28BE492E009954427552772
:100B5000BA014C195D096E097F092AE003C02AE039
:100B6000B701A6018BE492E00E946E0268E371E097
:100B70008BE492E00E94590252E0C334D50799F603
:100B800061E271E08BE492E00E9459020E94CE0182
:100B90007ECEA1E21A2EAA1BBB1BFD010DC0AA1F0F
:100BA000BB1FEE1FFF1FA217B307E407F50720F0D6
:100BB000A21BB30BE40BF50B661F771F881F991F51
:100BC0001A9469F760957095809590959B01AC019A
:100BD000BD01CF010895EE0FFF1F0590F491E02DA8
:100BE000099481E090E0F8940C94F605F894FFCF16
:100BF000000000006501CE00FD00AC012E010C01DB
:100C00002001564D4450565F317C315F564D445063
:100C1000560D0A00564D4450455F003A323A007C6A
:0A0C2000005F564D445045002C00C3
:00000001FF
